S01900007465737464696E676D6963726F636869702E73726563EB
S11300000C9487000C949C000C949C000C949C0011
S11300100C949C000C949C000C949C000C949C00EC
S11300200C949C000C949C000C949C000C949C00DC
S11300300C949C000C949C000C949C000C949C00CC
S11300400C949C000C949C000C949C000C949C00BC
S11300500C949C000C949C000C949C000C949C00AC
S11300600C949C000C949C000C949C000C949C009C
S11300700C949C000C949C000C949C000C949C008C
S11300800C949C000C949C000C949C000C949C007C
S11300900C949C000C949C000C949C000C949C006C
S11300A00C949C000C949C000C949C000C949C005C
S11300B00C949C0008000000BE922449123EABAA96
S11300C0AA2ABECDCCCC4C3E00000080BEABAAAA6E
S11300D0AA3E00000000BF000000803F00000000B6
S11300E000084178D3BB4387D1133D190E3CC3BDEF
S11300F04282AD2B3E68EC8276BED98FE1A93E4C9C
S113010080EFFFBE01C4FF7F3F0000000000112408
S11301101FBECFEFD8E0DEBFCDBF11E0A0E0B1E05D
S1130120E8EEFBE002C005900D92AC30B107D9F7C0
S11301300E9460020C94F2050C94000087B18E7F3B
S113014087B987B18D7F87B98AB180668AB98AB148
S11301508B7F8AB98AB18F7E8AB98BB184608BB95F
S113016088B18C7F88B9089583EA84BD83E085BD16
S1130170089580E480937C0087E880937A00089552
S113018087E690E09093C5008093C40088E980934B
S1130190C10008951092B90088E48093B80084E007
S11301A08093BC000895ECE7F0E09081907F8F701D
S11301B0892B8083EAE7F0E08081806480838091EA
S11301C07A0086FDFCCF80917800909179000895A3
S11301D090E080E029C02F5F3F4F213147E2340790
S11301E018F025C020E030E04A9BF5CF25ED2A9594
S11301F0F1F700004A9B0CC047E050E0491B51094D
S113020021E030E002C0220F331F4A95E2F7822B2F
S113021020E030E006C02F5F3F4F213147E2340732
S113022040F44A99F8CF9F5F9830E0F208958FEF39
S113023008958FEF08950F931F93CF93DF938AB19F
S113024084608AB98BB18B7F8BB92FEF89EF90E0F3
S1130250215080409040E1F700C000008BB18460E1
S11302608BB925ED2A95F1F700008AB18B7F8AB905
S113027080E090E005C00196813127E2920790F575
S11302804A99F9CF80E090E005C00196813127E2D8
S1130290920750F54A9BF9CF80E090E005C00196A3
S11302A0813127E2920710F54A99F9CF0E94E800BC
S11302B0082F0E94E800C82F0E94E800D82F0E944F
S11302C0E800182F0E94E8002C2F30E0200F311D89
S11302D02D0F311D210F311D90E02817390741F4EE
S11302E08D2F07C08FEF05C08EEF03C08DEF01C0C7
S11302F08BEFDF91CF911F910F9108959091C000E2
S113030095FFFCCF8093C60008950F931F93CF935E
S1130310DF9300D000D0CDB7DEB74AE0BE016F5FF7
S11303207F4F0E94BD058E010F5F1F4F04C00E94C6
S11303307E010F5F1F4FF80180818111F8CF8AE0A1
S11303400E947E010F900F900F900F90DF91CF913C
S11303501F910F91089594EA9093BC009091BC0072
S11303609923E4F79091B900987F983081F48093B1
S1130370BB0084E88093BC008091BC008823E4F730
S11303808091B900887F883121F082E0089581E06E
S1130390089580E008958093BB0084E88093BC00B6
S11303A08091BC008823E4F78091B900887F88326B
S11303B011F081E0089580E0089584E98093BC0001
S11303C085E38A95F1F700000895CF93807FC82FC5
S11303D0C8606111C1608EE40E94AB018C2F8460FF
S11303E00E94CB0185E08A95F1F700008C2F0E94D2
S11303F0CB010E94DD01CF910895CF93DF93C82FE5
S1130400D62F807F0E94E5016D2F8C2F8295807FEF
S11304100E94E5018FE39FE10197F1F700C000001E
S1130420DF91CF91089560E00E94FD01089561E09D
S11304300E94FD0108952FEF80E792E02150804053
S11304409040E1F700C0000060E080E30E94E50115
S11304508FE19EE40197F1F700C0000060E080E3C3
S11304600E94E50187E592E00197F1F700C00000E2
S113047060E080E30E94E50160E080E20E94E50123
S113048088E20E9413028CE00E94130286E00E941C
S1130490130281E00E9413028FE39FE10197F1F7B9
S11304A000C000000895CF93DF93EC0103C02196B0
S11304B00E94170288818111FACFDF91CF910895AC
S11304C0CF93DF93CDB7DEB728970FB6F894DEBF8E
S11304D00FBECDBF0E949E000E94B4000E94B900CE
S11304E00E94C0000E94CA000E941B022FEF81EEEE
S11304F094E0215080409040E1F700C0000080E883
S11305000E941302809100018133E9F40E941B01CF
S1130510E82E81E091E00E9453020E2C000CFF08AB
S11305204AE0BE016F5F7F4FC7010E94BD05CE0147
S113053001960E94530288E091E00E945302C70191
S11305400E9485016BC080E00E94D300BC0180E062
S113055090E00E943D0420E030E040EA50E40E9434
S11305601B0520E030EC4FE754E40E9495039B0107
S1130570AC0160E070E080EA90E40E94950320E022
S113058030E040E85FE30E94280320E030E44CE1DF
S113059056E40E941B0520E030E44CE156E40E943E
S11305A095030E94D3042CE23BEB44E859E30E94F8
S11305B01B052FE03FEC4BE55BE30E9429039B0105
S11305C0AC0160E070E080E89FE30E94950323E3C0
S11305D033E948E853E40E9428036B017C0181E07D
S11305E091E00E945302C701B6010E940704DC0196
S11305F0CB014AE0BE016F5F7F4F0E94BD05CE0173
S113060001960E94530288E091E00E945302C701C0
S1130610B6010E940E04CB010E94850180E00E9475
S1130620D300969587959695879587BD81E00E941E
S1130630D300969587959695879588BD2FEF83EC83
S113064099E0215080409040E1F700C0000057CF6E
S11306505058BB27AA270E9440030C9491040E947F
S1130660830438F00E948A0420F039F49F3F19F47F
S113067026F40C9480040EF4E095E7FB0C947A04C1
S1130680E92F0E94A20458F3BA176207730784077C
S1130690950720F079F4A6F50C94C4040EF4E095C3
S11306A00B2EBA2FA02D0B01B90190010C01CA0128
S11306B0A0011124FF27591B99F0593F50F4503ED3
S11306C068F11A16F040A22F232F342F4427585FC5
S11306D0F3CF469537952795A795F0405395C9F7DD
S11306E07EF41F16BA0B620B730B840BBAF0915095
S11306F0A1F0FF0FBB1F661F771F881FC2F70EC034
S1130700BA0F621F731F841F48F487957795679506
S1130710B795F7959E3F08F0B0CF9395880F08F0F2
S11307209927EE0F9795879508950E94A9030C9435
S113073091040E948A0458F00E94830440F029F432
S11307405F3F29F00C947A0451110C94C5040C9465
S113075080040E94A20468F39923B1F3552391F312
S1130760951B550BBB27AA2762177307840738F01C
S11307709F5F5F4F220F331F441FAA1FA9F335D079
S11307800E2E3AF0E0E832D091505040E695001C2D
S1130790CAF72BD0FE2F29D0660F771F881FBB1FE7
S11307A0261737074807AB07B0E809F0BB0B802DC5
S11307B0BF01FF2793585F4F3AF09E3F510578F0F1
S11307C00C947A040C94C5045F3FE4F3983ED4F38C
S11307D0869577956795B795F7959F5FC9F7880FC5
S11307E0911D9695879597F90895E1E0660F771F17
S11307F0881FBB1F621773078407BA0720F0621BA8
S1130800730B840BBA0BEE1F88F7E09508950E94D2
S11308100E046894B1110C94C50408950E94AA04AE
S113082088F09F5798F0B92F9927B751B0F0E1F0AD
S1130830660F771F881F991F1AF0BA95C9F714C05D
S1130840B13091F00E94C404B1E008950C94C40442
S1130850672F782F8827B85F39F0B93FCCF3869596
S113086077956795B395D9F73EF4909580957095F3
S113087061957F4F8F4F9F4F0895E89409C097FB70
S11308803EF490958095709561957F4F8F4F9F4F63
S11308909923A9F0F92F96E9BB279395F6958795A7
S11308A077956795B795F111F8CFFAF4BB0F11F46A
S11308B060FF1BC06F5F7F4F8F4F9F4F16C0882311
S11308C011F096E911C0772321F09EE8872F762F47
S11308D005C0662371F096E8862F70E060E02AF088
S11308E09A95660F771F881FDAF7880F9695879574
S11308F097F9089597F99F6780E870E060E008959C
S11309009FEF80EC089500240A9416161706180623
S11309100906089500240A941216130614060506FF
S11309200895092E0394000C11F4882352F0BB0F90
S113093040F4BF2B11F460FF04C06F5F7F4F8F4FF3
S11309409F4F089557FD9058440F551F59F05F3F2E
S113095071F04795880F97FB991F61F09F3F79F0DD
S113096087950895121613061406551FF2CF46955F
S1130970F1DF08C0161617061806991FF1CF8695E1
S11309807105610508940895E894BB2766277727C5
S1130990CB0197F9089516F00C9488050C94800403
S11309A068940C947A040E94AA04A8F39923C1F3CE
S11309B0AEF3DF93CF931F930F93FF92C92FDD27DD
S11309C088232AF02197660F771F881FDAF720E023
S11309D030E040E85FEB9FE3883920F0803E38F058
S11309E021968F770E942903E4EBF0E004C00E9473
S11309F02903E1EEF0E00E9496058B01BE01EC01B3
S1130A00FB2E6F5771097595771F880B990B0E9400
S1130A103F0428E132E741E35FE30E942E05AF2D56
S1130A209801AE01FF900F911F91CF91DF910E9429
S1130A3040030C9491040E942E050C9491040E948E
S1130A40830438F00E948A0420F0952311F00C945A
S1130A507A040C94800411240C94C5040E94A2040A
S1130A6070F3959FC1F3950F50E0551F629FF001FD
S1130A70729FBB27F00DB11D639FAA27F00DB11D16
S1130A80AA1F649F6627B00DA11D661F829F22279F
S1130A90B00DA11D621F739FB00DA11D621F839F26
S1130AA0A00D611D221F749F3327A00D611D231FFC
S1130AB0849F600D211D822F762F6A2F11249F574A
S1130AC050409AF0F1F088234AF0EE0FFF1FBB1F4D
S1130AD0661F771F881F91505040A9F79E3F51050C
S1130AE080F00C947A040C94C5045F3FE4F3983EC0
S1130AF0D4F3869577956795B795F795E7959F5FB6
S1130B00C1F7FE2B880F911D9695879597F9089547
S1130B109F3F31F0915020F4879577956795B7956D
S1130B20880F911D9695879597F90895DF93CF9334
S1130B301F930F93FF92EF92DF927B018C016894D5
S1130B4006C0DA2EEF010E942E05FE01E894A5915D
S1130B502591359145915591A6F3EF010E944003EB
S1130B60FE019701A801DA9469F7DF90EF90FF90F6
S1130B700F911F91CF91DF910895BB274A3031F433
S1130B80992322F4BDE2909581959F4F0C94C90559
S1130B90BB27FB015527AA27880F991FAA1FA41753
S1130BA010F0A41B83955051B9F7A05DAA3308F047
S1130BB0A95DA193009779F7B111B1931192CB017B
S1130BC00C94E205DC01FC01672F71917723E1F7B6
S1130BD0329704C07C916D9370836291AE17BF0706
S10B0BE0C8F30895F894FFCF57
S10F0BE83154454D503A200043200000D9
S9030000FC
