:100000000C9487000C949C000C949C000C949C0015
:100010000C949C000C949C000C949C000C949C00F0
:100020000C949C000C949C000C949C000C949C00E0
:100030000C949C000C949C000C949C000C949C00D0
:100040000C949C000C949C000C949C000C949C00C0
:100050000C949C000C949C000C949C000C949C00B0
:100060000C949C000C949C000C949C000C949C00A0
:100070000C949C000C949C000C949C000C949C0090
:100080000C949C000C949C000C949C000C949C0080
:100090000C949C000C949C000C949C000C949C0070
:1000A0000C949C000C949C000C949C000C949C0060
:1000B0000C949C0008000000BE922449123EABAA9A
:1000C000AA2ABECDCCCC4C3E00000080BEABAAAA72
:1000D000AA3E00000000BF000000803F00000000BA
:1000E00000084178D3BB4387D1133D190E3CC3BDF3
:1000F0004282AD2B3E68EC8276BED98FE1A93E4CA0
:1001000080EFFFBE01C4FF7F3F000000000011240C
:100110001FBECFEFD8E0DEBFCDBF11E0A0E0B1E061
:10012000EAEBFDE002C005900D92AC31B107D9F7C2
:100130000E9463020C94DB060C94000087B18E7F52
:1001400087B987B18D7F87B98AB180668AB98AB14C
:100150008B7F8AB98AB18F7E8AB98BB184608BB963
:100160008BB180618BB988B18C7F88B9089583EA9F
:1001700084BD83E085BD089580E480937C0087E89A
:1001800080937A00089587E690E09093C50080936D
:10019000C40088E98093C10008951092B90088E4F2
:1001A0008093B80084E08093BC000895ECE7F0E011
:1001B0009081907F8F70892B8083EAE7F0E08081C7
:1001C0008064808380917A0086FDFCCF80917800E6
:1001D00090917900089590E080E029C02F5F3F4F13
:1001E000213147E2340718F025C020E030E04A9B77
:1001F000F5CF25ED2A95F1F700004A9B0CC047E0AA
:1002000050E0491B510921E030E002C0220F331FAA
:100210004A95E2F7822B20E030E006C02F5F3F4F87
:10022000213147E2340740F44A99F8CF9F5F983074
:10023000E0F208958FEF08958FEF08950F931F93C5
:10024000CF93DF938AB184608AB98BB18B7F8BB9EE
:100250002FEF89EF90E0215080409040E1F700C0FF
:1002600000008BB184608BB925ED2A95F1F7000071
:100270008AB18B7F8AB980E090E005C00196813118
:1002800027E2920790F54A99F9CF80E090E005C007
:100290000196813127E2920750F54A9BF9CF80E021
:1002A00090E005C00196813127E2920710F54A9946
:1002B000F9CF0E94EB00082F0E94EB00C82F0E948C
:1002C000EB00D82F0E94EB00182F0E94EB002C2F80
:1002D00030E0200F311D2D0F311D210F311D90E019
:1002E0002817390741F48D2F07C08FEF05C08EEF17
:1002F00003C08DEF01C08BEFDF91CF911F910F9164
:1003000008959091C00095FFFCCF8093C60008959A
:100310000F931F93CF93DF9300D000D0CDB7DEB7FC
:100320004AE0BE016F5F7F4F0E94A6068E010F5FFD
:100330001F4F04C00E9481010F5F1F4FF801808191
:100340008111F8CF8AE00E9481010F900F900F90E9
:100350000F90DF91CF911F910F91089594EA9093A0
:10036000BC009091BC009923E4F79091B900987F6C
:10037000983081F48093BB0084E88093BC00809126
:10038000BC008823E4F78091B900887F883121F090
:1003900082E0089581E0089580E008958093BB0095
:1003A00084E88093BC008091BC008823E4F78091AE
:1003B000B900887F883211F081E0089580E00895C7
:1003C00084E98093BC0085E38A95F1F700000895E5
:1003D000CF93807FC82FC8606111C1608EE40E94F6
:1003E000AE018C2F84600E94CE0185E08A95F1F7E2
:1003F00000008C2F0E94CE010E94E001CF91089551
:10040000CF93DF93C82FD62F807F0E94E8016D2FF6
:100410008C2F8295807F0E94E8018FE39FE10197F6
:10042000F1F700C00000DF91CF91089560E00E94D5
:100430000002089561E00E94000208952FEF80E716
:1004400092E0215080409040E1F700C0000060E061
:1004500080E30E94E8018FE19EE40197F1F700C07C
:10046000000060E080E30E94E80187E592E00197E8
:10047000F1F700C0000060E080E30E94E80160E066
:1004800080E20E94E80188E20E9416028CE00E944D
:10049000160286E00E94160281E00E9416028FE397
:1004A0009FE10197F1F700C000000895CF93DF931B
:1004B000EC0103C021960E941A0288818111FACFB3
:1004C000DF91CF910895CF93DF93CDB7DEB76097DB
:1004D0000FB6F894DEBF0FBECDBF0E949E000E94F3
:1004E000B7000E94BC000E94C3000E94CD000E9481
:1004F0001E022FEF31EE84E0215030408040E1F7C2
:1005000000C0000089B1807190E021E0009709F4FB
:1005100020E0309101013130A1F4892B91F48091D8
:100520000001803311F481E301C080E38093000176
:100530009FEF33EC89E0915030408040E1F700C0FC
:1005400000002093010180E00E94D600BC0180E001
:1005500090E00E94FD0420E030E040EA50E40E9478
:10056000040620E030EC4FE754E40E9455046B0190
:100570007C012AE037ED43E25CE30E9450048823CB
:1005800054F40F2EFAE0CF2EF7EDDF2EF3E2EF2E2C
:10059000FCE3FF2EF02DA701960160E070E080EAF9
:1005A00090E40E94550420E030E040E85FE30E94C0
:1005B000E30320E030E44CE156E40E94040620E02E
:1005C00030E44CE156E40E9455040E94BC052CE244
:1005D0003BEB44E859E30E9404062FE03FEC4BE577
:1005E0005BE30E94E4039B01AC0160E070E080E803
:1005F0009FE30E94550423E333E948E853E40E9453
:10060000E3030E94C7046B017C015B014AE0BE0169
:10061000675F7F4FC6010E94A60680EC0E9416020B
:1006200082E091E00E945602CE0109960E94560295
:1006300080E191E00E94560280E80E9416028091BB
:100640000001813369F50E941E01182F8F3F09F4C4
:10065000B0C082E191E00E945602E12E110FFF0826
:100660004AE0BE016F5F7F4FC7010E94A606CE0120
:1006700001960E94560289E191E00E945602C7014C
:100680000E948801EA14FB041CF48FEF87BD18BC9C
:10069000AE14BF040CF08DC017BC8FEF88BD89C0AD
:1006A00081E00E94D600BC0180E090E00E94FD0441
:1006B00020E030E040EA50E40E94040620E030EC04
:1006C0004FE754E40E9455049B01AC0160E070E0E8
:1006D00080EA90E40E94550420E030E040E85FE3C7
:1006E0000E94E30320E030E44CE156E40E9404065B
:1006F00020E030E44CE156E40E9455040E94BC0521
:100700002CE23BEB44E859E30E9404062FE03FEC67
:100710004BE55BE30E94E4039B01AC0160E070E009
:1007200080E89FE30E94550423E333E948E853E45B
:100730000E94E3034B015C0182E191E00E945602BA
:10074000C501B4010E94C704DC01CB014AE0BE012F
:100750006F5F7F4F0E94A606CE0101960E9456024F
:1007600089E191E00E945602C501B4010E94CE04C5
:10077000CB010E948801B601DD0C880B990B0E9409
:10078000FF046B017C019B01AC01C501B4010E9417
:10079000500488231CF48FEF87BD18BCA701960175
:1007A000C501B4010E94AF0518161CF417BC8FEFE9
:1007B00088BD9FEF21EE34E0915020403040E1F7BA
:1007C00000C000009FCE5058BB27AA270E94FB0301
:1007D0000C9475050E94670538F00E946E0520F0A4
:1007E00039F49F3F19F426F40C9464050EF4E09557
:1007F000E7FB0C945E05E92F0E94860558F3BA17B3
:10080000620773078407950720F079F4A6F50C9426
:10081000A8050EF4E0950B2EBA2FA02D0B01B901FF
:1008200090010C01CA01A0011124FF27591B99F066
:10083000593F50F4503E68F11A16F040A22F232F72
:10084000342F4427585FF3CF469537952795A795C2
:10085000F0405395C9F77EF41F16BA0B620B730B69
:10086000840BBAF09150A1F0FF0FBB1F661F771FDA
:10087000881FC2F70EC0BA0F621F731F841F48F48F
:10088000879577956795B795F7959E3F08F0B0CF18
:100890009395880F08F09927EE0F979587950895FF
:1008A0000E943A0508F481E008950E9469040C94BE
:1008B00075050E946E0558F00E94670540F029F406
:1008C0005F3F29F00C945E0551110C94A9050C941E
:1008D00064050E94860568F39923B1F3552391F3CB
:1008E000951B550BBB27AA2762177307840738F09F
:1008F0009F5F5F4F220F331F441FAA1FA9F335D0FC
:100900000E2E3AF0E0E832D091505040E695001CAF
:10091000CAF72BD0FE2F29D0660F771F881FBB1F69
:10092000261737074807AB07B0E809F0BB0B802D47
:10093000BF01FF2793585F4F3AF09E3F510578F073
:100940000C945E050C94A9055F3FE4F3983ED4F344
:10095000869577956795B795F7959F5FC9F7880F47
:10096000911D9695879597F90895E1E0660F771F99
:10097000881FBB1F621773078407BA0720F0621B2A
:10098000730B840BBA0BEE1F88F7E09508950E9455
:10099000CE046894B1110C94A90508950E948E05A7
:1009A00088F09F5798F0B92F9927B751B0F0E1F030
:1009B000660F771F881F991F1AF0BA95C9F714C0E0
:1009C000B13091F00E94A805B1E008950C94A805FB
:1009D000672F782F8827B85F39F0B93FCCF3869519
:1009E00077956795B395D9F73EF490958095709576
:1009F00061957F4F8F4F9F4F0895E89409C097FBF3
:100A00003EF490958095709561957F4F8F4F9F4FE5
:100A10009923A9F0F92F96E9BB279395F695879529
:100A200077956795B795F111F8CFFAF4BB0F11F4EC
:100A300060FF1BC06F5F7F4F8F4F9F4F16C0882393
:100A400011F096E911C0772321F09EE8872F762FC9
:100A500005C0662371F096E8862F70E060E02AF00A
:100A60009A95660F771F881FDAF7880F96958795F6
:100A700097F90895990F0008550FAA0BE0E8FEEFCB
:100A800016161706E807F907C0F012161306E40752
:100A9000F50798F0621B730B840B950B39F40A264B
:100AA00061F0232B242B252B21F408950A2609F429
:100AB000A140A6958FEF811D811D089597F99F672D
:100AC00080E870E060E008959FEF80EC08950024D6
:100AD0000A941616170618060906089500240A94A3
:100AE00012161306140605060895092E0394000C29
:100AF00011F4882352F0BB0F40F4BF2B11F460FFB8
:100B000004C06F5F7F4F8F4F9F4F089557FD9058E0
:100B1000440F551F59F05F3F71F04795880F97FBC1
:100B2000991F61F09F3F79F087950895121613067B
:100B30001406551FF2CF4695F1DF08C016161706AA
:100B40001806991FF1CF86957105610508940895DF
:100B5000E894BB2766277727CB0197F908950E9471
:100B60003A0508F48FEF089516F00C9471060C9472
:100B7000640568940C945E050E948E05A8F3992381
:100B8000C1F3AEF3DF93CF931F930F93FF92C92F5F
:100B9000DD2788232AF02197660F771F881FDAF751
:100BA00020E030E040E85FEB9FE3883920F0803EB2
:100BB00038F021968F770E94E403E4EBF0E004C064
:100BC0000E94E403E1EEF0E00E947F068B01BE018B
:100BD000EC01FB2E6F5771097595771F880B990BE8
:100BE0000E94FF0428E132E741E35FE30E94170619
:100BF000AF2D9801AE01FF900F911F91CF91DF9122
:100C00000E94FB030C9475050E9417060C94750551
:100C10000E94670538F00E946E0520F0952311F0C0
:100C20000C945E050C94640511240C94A9050E9493
:100C3000860570F3959FC1F3950F50E0551F629F95
:100C4000F001729FBB27F00DB11D639FAA27F00D25
:100C5000B11DAA1F649F6627B00DA11D661F829F4C
:100C60002227B00DA11D621F739FB00DA11D621F31
:100C7000839FA00D611D221F749F3327A00D611D4E
:100C8000231F849F600D211D822F762F6A2F112430
:100C90009F5750409AF0F1F088234AF0EE0FFF1F63
:100CA000BB1F661F771F881F91505040A9F79E3FBA
:100CB000510580F00C945E050C94A9055F3FE4F3A8
:100CC000983ED4F3869577956795B795F795E79510
:100CD0009F5FC1F7FE2B880F911D9695879597F919
:100CE00008959F3F31F0915020F48795779567954F
:100CF000B795880F911D9695879597F90895DF937D
:100D0000CF931F930F93FF92EF92DF927B018C01A1
:100D1000689406C0DA2EEF010E941706FE01E894DF
:100D2000A5912591359145915591A6F3EF010E942A
:100D3000FB03FE019701A801DA9469F7DF90EF90B9
:100D4000FF900F911F91CF91DF910895BB274A30FB
:100D500031F4992322F4BDE2909581959F4F0C9434
:100D6000B206BB27FB015527AA27880F991FAA1F88
:100D7000A41710F0A41B83955051B9F7A05DAA33B6
:100D800008F0A95DA193009779F7B111B193119281
:100D9000CB010C94CB06DC01FC01672F719177230A
:100DA000E1F7329704C07C916D9370836291AE1726
:0A0DB000BF07C8F30895F894FFCFC1
:100DBA0030015461726765742054656D703A200081
:0C0DCA00430054454D503A2000432000E7
:00000001FF
