:100000000C945A000C946F000C946F000C946F00C9
:100010000C946F000C946F000C946F000C946F00A4
:100020000C946F000C946F000C946F000C946F0094
:100030000C946F000C946F000C946F000C946F0084
:100040000C946F000C946F000C946F000C946F0074
:100050000C946F000C946F000C946F000C946F0064
:100060000C946F000C946F000C946F000C946F0054
:100070000C946F000C946F000C946F000C946F0044
:100080000C946F000C946F000C946F000C946F0034
:100090000C946F000C946F000C946F000C946F0024
:1000A0000C946F000C946F000C946F000C946F0014
:1000B0000C946F0011241FBECFEFD8E0DEBFCDBF80
:1000C00011E0A0E0B1E0E4E6F1E002C005900D929D
:1000D000A031B107D9F70E9498000C94B0000C949D
:1000E00000001092C50087E68093C40088E18093E9
:1000F000C10086E08093C20008959091C00095FFF2
:10010000FCCF8093C6000895CF93DF93EC0103C02A
:1001100021960E947D0088818111FACFDF91CF91D5
:1001200008958091C0008823E4F78091C600089567
:100130000E94710080E091E00E9484002FEF83ED27
:1001400090E3215080409040E1F700C00000809192
:10015000C00088237CF70E9491000E947D00EACFB6
:04016000F894FFCF41
:1001640048656C6C6F2076696120554152542100BA
:00000001FF
