S01900007465737464696E676D6963726F636869702E73726563EB
S11300000C945A000C946F000C946F000C946F00C5
S11300100C946F000C946F000C946F000C946F00A0
S11300200C946F000C946F000C946F000C946F0090
S11300300C946F000C946F000C946F000C946F0080
S11300400C946F000C946F000C946F000C946F0070
S11300500C946F000C946F000C946F000C946F0060
S11300600C946F000C946F000C946F000C946F0050
S11300700C946F000C946F000C946F000C946F0040
S11300800C946F000C946F000C946F000C946F0030
S11300900C946F000C946F000C946F000C946F0020
S11300A00C946F000C946F000C946F000C946F0010
S11300B00C946F0011241FBECFEFD8E0DEBFCDBF7C
S11300C011E0A0E0B1E0ECEFF2E002C005900D9287
S11300D0A030B107D9F70E944D010C947C010C9417
S11300E0000087B18E7F87B987B18D7F87B98AB1C8
S11300F080668AB98AB18B7F8AB988B18C7F88B9C6
S113010024B181E090E002C0880F991F2A95E2F79C
S1130110856094B1892B84B981E58CBD089583EA07
S113012084BD83E085BD089580E480937C0087E8E6
S113013080937A00089584B1876084B981E58CBD89
S11301400895ECE7F0E09081907F8F70892B808395
S1130150EAE7F0E080818064808380917A0086FD04
S1130160FCCF809178009091790008958EBD0DB4F4
S113017007FEFDCF08959BB19B7F9BB99BB19F7EEA
S11301809BB90E94B6008BB180618BB908959BB175
S113019094609BB99BB19F7E9BB90E94B6008BB1C2
S11301A080618BB908958BB1877F8BB98FE39CE90C
S11301B00197F1F700C000008BB188608BB98FE321
S11301C09CE90197F1F700C0000008950E94D30054
S11301D02FEF80E792E0215080409040E1F700C08B
S11301E000008EEA0E94BB0085ED0E94BB0080E8FF
S11301F00E94BB0088EA0E94BB008FE30E94BB0000
S113020083ED0E94BB0080E00E94BB0080E40E945A
S1130210BB008DE80E94BB0084E10E94BB0080E229
S11302200E94BB0080E00E94BB0081EA0E94BB00E8
S113023088EC0E94BB008AED0E94BB0082E10E9410
S1130240BB0081E80E94BB008FEC0E94BB0089EDDB
S11302500E94BB0081EF0E94BB008BED0E94BB009B
S113026080E40E94BB0084EA0E94BB0086EA0E94EC
S1130270BB008FEA0E94BB000895CF93DF93C0E0D8
S1130280D0E004C080E00E94C7002196C11584E03C
S1130290D807C0F3DF91CF9108950E9471000E94A6
S11302A08F000E9494000E949B000E94E6000E941E
S11302B03D012FEF81EE94E0215080409040E1F722
S11302C000C0000080E00E94A10096958795969555
S11302D0879587BD81E00E94A100969587959695A4
S11302E0879588BD2FEF83EC99E0215080409040A2
S10F02F0E1F700C00000E6CFF894FFCF57
S9030000FC
