:100000000C945A000C9464000C9464000C946400EA
:100010000C9464000C9464000C9464000C946400D0
:100020000C9464000C9464000C9464000C946400C0
:100030000C9464000C9464000C9464000C946400B0
:100040000C9464000C9464000C9464000C946400A0
:100050000C9464000C9464000C9464000C94640090
:100060000C9464000C9464000C9464000C94640080
:100070000C9464000C9464000C9464000C94640070
:100080000C9464000C9464000C9464000C94640060
:100090000C9464000C9464000C9464000C94640050
:1000A0000C9464000C9464000C9464000C94640040
:1000B0000C94640011241FBECFEFD8E0DEBFCDBF8B
:1000C0000E94A4000C94C1000C94000087B18063CE
:1000D00087B987B18E7F87B987B18D7F87B984B1A2
:1000E000866084B98AB18B7F8AB988B18C7F88B9E0
:1000F0000895A0E8B0E081E08C93E1E8F0E088E0CA
:1001000080838C91806A8C93808183608083089542
:1001100080E480937C0087E880937A000895ECE780
:10012000F0E09081907F8F70892B8083EAE7F0E088
:1001300080818064808380917A0086FDFCCF8091ED
:1001400078009091790008950E9466000E947900DD
:100150000E94880080E00E948F0096958795969572
:100160008795909389008093880081E00E948F009A
:10017000969587959695879590938B0080938A00A6
:06018000E9CFF894FFCF67
:00000001FF
