:100000000C945A000C946F000C946F000C946F00C9
:100010000C946F000C946F000C946F000C946F00A4
:100020000C946F000C946F000C946F000C946F0094
:100030000C946F000C946F000C946F000C946F0084
:100040000C946F000C946F000C946F000C946F0074
:100050000C946F000C946F000C946F000C946F0064
:100060000C946F000C946F000C946F000C946F0054
:100070000C946F000C946F000C946F000C946F0044
:100080000C946F000C946F000C946F000C946F0034
:100090000C946F000C946F000C946F000C946F0024
:1000A0000C946F000C946F000C946F000C946F0014
:1000B0000C946F0011241FBECFEFD8E0DEBFCDBF80
:1000C00011E0A0E0B1E0E6EFF4E002C005900D928F
:1000D000AA30B107D9F70E94F0010C9479020C9470
:1000E000000087B18E7F87B987B18D7F87B98AB1CC
:1000F00080668AB98AB18B7F8AB98BB184608BB9EB
:1001000088B18C7F88B9089583EA84BD83E085BD7A
:10011000089580E480937C0087E880937A000895B6
:1001200087E690E09093C5008093C40088E98093AF
:10013000C10008951092B90088E48093B80084E06B
:100140008093BC000895ECE7F0E09081907F8F7081
:10015000892B8083EAE7F0E080818064808380914E
:100160007A0086FDFCCF8091780090917900089507
:1001700090E080E016C04A9BFECF20EA2A95F1F776
:100180004A9B0CC047E050E0491B510921E030E098
:1001900002C0220F331F4A95E2F7822B4A99FECF05
:1001A0009F5F983040F308950F931F93CF93DF9391
:1001B0008AB184608AB98BB18B7F8BB92FEF89EFBD
:1001C00090E0215080409040E1F700C000008BB1EA
:1001D00084608BB920EA2A95F1F78AB18B7F8AB9BE
:1001E00080E090E005C00196813127E29207A8F5F2
:1001F0004A99F9CF80E090E005C00196813127E26D
:10020000920768F54A9BF9CF80E090E005C001961F
:10021000813127E2920728F54A99F9CF80E090E0F2
:1002200005C00196813127E29207E8F44A9BF9CF95
:100230000E94B800082F0E94B800D82F0E94B80072
:10024000C82F0E94B800182F0E94B800D00FDC0FF2
:10025000D10F8D130AC08C2F09C08FEF07C08EEF0E
:1002600005C08DEF03C08CEF01C08BEFDF91CF9104
:100270001F910F91089594EA9093BC009091BC0057
:100280009923E4F79091B900987F983081F4809396
:10029000BB0084E88093BC008091BC008823E4F715
:1002A0008091B900887F883121F082E0089581E053
:1002B000089580E008958093BB0084E88093BC009B
:1002C0008091BC008823E4F78091B900887F883250
:1002D00011F081E0089580E0089584E98093BC00E6
:1002E00085E38A95F1F700000895CF93807FC82FAA
:1002F000C8606111C1608EE40E943B018C2F846054
:100300000E945B0185E08A95F1F700008C2F0E9426
:100310005B010E946D01CF910895CF93DF93C82FA9
:10032000D62F807F0E9475016D2F8C2F8295807F44
:100330000E9475018FE39FE10197F1F700C0000073
:10034000DF91CF91089560E00E948D01089561E0F2
:100350000E948D0108952FEF80E792E021508040A8
:100360009040E1F700C0000060E080E30E9475016A
:100370008FE19EE40197F1F700C0000060E080E3A8
:100380000E94750187E592E00197F1F700C0000037
:1003900060E080E30E94750160E080E20E947501E8
:1003A00088E20E94A3018CE00E94A30186E00E94E3
:1003B000A30181E00E94A3018FE39FE10197F1F780
:1003C00000C000000895CF93DF93EC0103C0219695
:1003D0000E94A70188818111FACFDF91CF91089502
:1003E000CF93DF93CDB7DEB728970FB6F894DEBF73
:1003F0000FBECDBF0E9471000E9484000E94890040
:100400000E9490000E949A000E94AB012FEF81EEA3
:1004100094E0215080409040E1F700C000000E942D
:10042000D400182F80E80E94A30180E091E00E9490
:10043000E3014AE0BE016F5F7F4F812F110F990BDF
:100440000E944402CE0101960E94E30187E091E000
:100450000E94E30180E00E94A300969587959695FF
:10046000879587BD81E00E94A30096958795969514
:10047000879588BD2FEF89E698E121508040904014
:10048000E1F700C00000CBCFBB274A3031F49923FD
:1004900022F4BDE2909581959F4F0C945002BB27AA
:1004A000FB015527AA27880F991FAA1FA41710F030
:1004B000A41B83955051B9F7A05DAA3308F0A95D3C
:1004C000A193009779F7B111B1931192CB010C94DC
:1004D0006902DC01FC01672F71917723E1F7329704
:1004E00004C07C916D9370836291AE17BF07C8F30F
:0604F0000895F894FFCF0F
:0A04F60054454D503A200043200009
:00000001FF
