:100000000C945A000C9464000C9464000C946400EA
:100010000C9464000C9464000C9464000C946400D0
:100020000C9464000C9464000C9464000C946400C0
:100030000C9464000C9464000C9464000C946400B0
:100040000C9464000C9464000C9464000C946400A0
:100050000C9464000C9464000C9464000C94640090
:100060000C9464000C9464000C9464000C94640080
:100070000C9464000C9464000C9464000C94640070
:100080000C9464000C9464000C9464000C94640060
:100090000C9464000C9464000C9464000C94640050
:1000A0000C9464000C9464000C9464000C94640040
:1000B0000C94640011241FBECFEFD8E0DEBFCDBF8B
:1000C0000E94A5000C94CE000C94000087B18E7F96
:1000D00087B987B18D7F87B98AB180668AB98AB1BD
:1000E0008B7F8AB988B18C7F88B924B181E090E098
:1000F00002C0880F991F2A95E2F7856094B1892B79
:1001000084B981E58CBD089583EA84BD83E085BD13
:10011000089580E480937C0087E880937A000895B6
:10012000ECE7F0E09081907F8F70892B8083EAE785
:10013000F0E080818064808380917A0086FDFCCF2E
:10014000809178009091790008950E9466000E9445
:1001500084000E9489002FEF81EE94E021508040BE
:100160009040E1F700C0000080E00E94900096956A
:1001700087959695879587BD81E00E94900096951A
:1001800087959695879588BD2FEF83EC99E0215050
:1001900080409040E1F700C00000E6CFF894FFCF28
:00000001FF
