:100000000C945A000C946F000C946F000C946F00C9
:100010000C946F000C946F000C946F000C946F00A4
:100020000C946F000C946F000C946F000C946F0094
:100030000C946F000C946F000C946F000C946F0084
:100040000C946F000C946F000C946F000C946F0074
:100050000C946F000C946F000C946F000C946F0064
:100060000C946F000C946F000C946F000C946F0054
:100070000C946F000C946F000C946F000C946F0044
:100080000C946F000C946F000C946F000C946F0034
:100090000C946F000C946F000C946F000C946F0024
:1000A0000C946F000C946F000C946F000C946F0014
:1000B0000C946F0011241FBECFEFD8E0DEBFCDBF80
:1000C00011E0A0E0B1E0E8E7F5E002C005900D9294
:1000D000AA30B107D9F70E94E2010C94BA020C943D
:1000E000000087B18E7F87B987B18D7F87B98AB1CC
:1000F00080668AB98AB18B7F8AB988B18C7F88B9CA
:10010000089583EA84BD83E085BD089580E48093EB
:100110007C0087E880937A00089587E690E09093CA
:10012000C5008093C40088E98093C10008951092AF
:10013000B90088E48093B80084E08093BC000895FF
:1001400084B1886284B984B18F7E84B98AB18068B1
:100150008AB98BB180688BB981E58CBD08958EBD5D
:100160000DB407FEFDCF8EB508958BB18F778BB997
:1001700008958BB180688BB90895CF93C82F0E94E2
:10018000B5008C2F80680E94AF0080E00E94AF0015
:10019000C82F0E94B9008C2FCF9108950F931F9301
:1001A000CF938AEF0E94BD00082F8BEF0E94BD0005
:1001B000C82F8CEF0E94BD00402F50E060E070E03F
:1001C0008A019B010F2EFCE0000F111F221F331F1D
:1001D000FA95D1F7F02D4C2F50E060E070E0440F1D
:1001E000551F661F771F440F551F661F771F440F4B
:1001F000551F661F771F440F551F661F771F402B23
:10020000512B622B732B82958F708A019B01082BD7
:10021000C901B801CF911F910F910895ECE7F0E06B
:100220009081907F8F70892B8083EAE7F0E0808156
:100230008064808380917A0086FDFCCF8091780075
:1002400090917900089594EA9093BC009091BC003D
:100250009923E4F79091B900987F983081F48093C6
:10026000BB0084E88093BC008091BC008823E4F745
:100270008091B900887F883121F082E0089581E083
:10028000089580E008958093BB0084E88093BC00CB
:100290008091BC008823E4F78091B900887F883280
:1002A00011F081E0089580E0089584E98093BC0016
:1002B00085E38A95F1F700000895CF93807FC82FDA
:1002C000C8606111C1608EE40E9423018C2F84609C
:1002D0000E94430185E08A95F1F700008C2F0E946F
:1002E00043010E945501CF910895CF93DF93C82F0A
:1002F000D62F807F0E945D016D2F8C2F8295807F8D
:100300000E945D018FE39FE10197F1F700C00000BB
:10031000DF91CF91089560E00E947501089561E03A
:100320000E94750108952FEF80E792E021508040F0
:100330009040E1F700C0000060E080E30E945D01B2
:100340008FE19EE40197F1F700C0000060E080E3D8
:100350000E945D0187E592E00197F1F700C000007F
:1003600060E080E30E945D0160E080E20E945D0148
:1003700088E20E948B018CE00E948B0186E00E9443
:100380008B0181E00E948B018FE39FE10197F1F7E0
:1003900000C000000895CF93DF93EC0103C02196C5
:1003A0000E948F0188818111FACFDF91CF9108954A
:1003B00081E00E948B018FE39FE10197F1F700C07C
:1003C00000000895CF93DF9300D000D000D0CDB7C8
:1003D000DEB70E9471000E9481000E9486000E9488
:1003E0008D000E9497000E9493010E94A0002FEFB1
:1003F00081EE94E0215080409040E1F700C0000081
:100400000E94CE0024E630E040E050E00E94390235
:10041000DA01C9014AE050E0BE016F5F7F4F0E94E0
:100420007A020E94D80180E091E00E94CB01CE01C7
:1004300001960E94CB0187E091E00E94CB0180E011
:100440000E940E01969587959695879587BD81E0C8
:100450000E940E01969587959695879588BD2FEFFA
:1004600089E698E1215080409040E1F700C000000B
:10047000C7CF052E97FB1EF400940E94500257FD33
:1004800007D00E94580207FC03D04EF40C9450028F
:1004900050954095309521953F4F4F4F5F4F0895B0
:1004A00090958095709561957F4F8F4F9F4F0895E0
:1004B000A1E21A2EAA1BBB1BFD010DC0AA1FBB1F68
:1004C000EE1FFF1FA217B307E407F50720F0A21BDA
:1004D000B30BE40BF50B661F771F881F991F1A9447
:1004E00069F760957095809590959B01AC01BD0171
:1004F000CF0108954532510520F4423010F00C949C
:100500008502FB011082CB010895BB274A3031F4EC
:10051000992322F4BDE2909581959F4F0C9491020E
:10052000BB27FB015527AA27880F991FAA1FA417CD
:1005300010F0A41B83955051B9F7A05DAA3308F0C1
:10054000A95DA193009779F7B111B1931192CB01F5
:100550000C94AA02DC01FC01672F71917723E1F76B
:10056000329704C07C916D9370836291AE17BF0780
:08057000C8F30895F894FFCFD1
:0A05780054454D503A200020430086
:00000001FF
