S01900007465737464696E676D6963726F636869702E73726563EB
S11300000C945A000C9464000C9464000C946400E6
S11300100C9464000C9464000C9464000C946400CC
S11300200C9464000C9464000C9464000C946400BC
S11300300C9464000C9464000C9464000C946400AC
S11300400C9464000C9464000C9464000C9464009C
S11300500C9464000C9464000C9464000C9464008C
S11300600C9464000C9464000C9464000C9464007C
S11300700C9464000C9464000C9464000C9464006C
S11300800C9464000C9464000C9464000C9464005C
S11300900C9464000C9464000C9464000C9464004C
S11300A00C9464000C9464000C9464000C9464003C
S11300B00C94640011241FBECFEFD8E0DEBFCDBF87
S11300C00E94A8000C94D6000C94000087B18E7F87
S11300D087B987B18D7F87B98AB180668AB98AB1B9
S11300E08B7F8AB988B18C7F88B9089583EA84BDEF
S11300F083E085BD089580E480937C0087E8809345
S11301007A00089587E690E09093C5008093C40038
S113011088E98093C1000895ECE7F0E09081907F36
S11301208F70892B8083EAE7F0E08081806480838C
S113013080917A0086FDFCCF8091780090917900BF
S113014008959091C00095FFFCCF8093C600089558
S11301500E9466000E9476000E947B000E9482003A
S11301602FEF81EE94E0215080409040E1F700C0F1
S1130170000089E60E94A10080E00E948C00969510
S113018087959695879587BD81E00E948C0096950A
S113019087959695879588BD2FEF83EC99E021503C
S11301A080409040E1F700C00000E3CFF894FFCF17
S9030000FC
