S01900007465737464696E676D6963726F636869702E73726563EB
S11300000C9487000C949C000C949C000C949C0011
S11300100C949C000C949C000C949C000C949C00EC
S11300200C949C000C949C000C949C000C949C00DC
S11300300C949C000C949C000C949C000C949C00CC
S11300400C949C000C949C000C949C000C949C00BC
S11300500C949C000C949C000C949C000C949C00AC
S11300600C949C000C949C000C949C000C949C009C
S11300700C949C000C949C000C949C000C949C008C
S11300800C949C000C949C000C949C000C949C007C
S11300900C949C000C949C000C949C000C949C006C
S11300A00C949C000C949C000C949C000C949C005C
S11300B00C949C0008000000BE922449123EABAA96
S11300C0AA2ABECDCCCC4C3E00000080BEABAAAA6E
S11300D0AA3E00000000BF000000803F00000000B6
S11300E000084178D3BB4387D1133D190E3CC3BDEF
S11300F04282AD2B3E68EC8276BED98FE1A93E4C9C
S113010080EFFFBE01C4FF7F3F0000000000112408
S11301101FBECFEFD8E0DEBFCDBF11E0A0E0B1E05D
S1130120E2EEFBE002C005900D92AC30B107D9F7C6
S11301300E945D020C94EF050C94000087B18E7F41
S113014087B987B18D7F87B98AB180668AB98AB148
S11301508B7F8AB98BB184608BB988B18C7F88B965
S1130160089583EA84BD83E085BD089580E4809387
S11301707C0087E880937A00089587E690E0909366
S1130180C5008093C40088E98093C100089510924B
S1130190B90088E48093B80084E08093BC0008959B
S11301A0ECE7F0E09081907F8F70892B8083EAE701
S11301B0F0E080818064808380917A0086FDFCCFAA
S11301C08091780090917900089590E080E029C0B2
S11301D02F5F3F4F213147E2340718F025C020E05C
S11301E030E04A9BF5CF25ED2A95F1F700004A9BB4
S11301F00CC047E050E0491B510921E030E002C047
S1130200220F331F4A95E2F7822B20E030E006C02C
S11302102F5F3F4F213147E2340740F44A99F8CF2A
S11302209F5F9830E0F208958FEF08958FEF08955F
S11302300F931F93CF93DF938AB184608AB98BB1F4
S11302408B7F8BB92FEF89EF90E021508040904055
S1130250E1F700C000008BB184608BB925ED2A95CD
S1130260F1F700008AB18B7F8AB980E090E005C085
S11302700196813127E2920790F54A99F9CF80E0FF
S113028090E005C00196813127E2920750F54A9B20
S1130290F9CF80E090E005C00196813127E2920712
S11302A010F54A99F9CF0E94E500082F0E94E50055
S11302B0C82F0E94E500D82F0E94E500182F0E9445
S11302C0E5002C2F30E0200F311D2D0F311D210FA3
S11302D0311D90E02817390741F48D2F07C08FEFA7
S11302E005C08EEF03C08DEF01C08BEFDF91CF917E
S11302F01F910F9108959091C00095FFFCCF8093BA
S1130300C60008950F931F93CF93DF9300D000D0BE
S1130310CDB7DEB74AE0BE016F5F7F4F0E94BA05DA
S11303208E010F5F1F4F04C00E947B010F5F1F4FA0
S1130330F80180818111F8CF8AE00E947B010F903F
S11303400F900F900F90DF91CF911F910F9108950F
S113035094EA9093BC009091BC009923E4F79091A7
S1130360B900987F983081F48093BB0084E880932F
S1130370BC008091BC008823E4F78091B900887F99
S1130380883121F082E0089581E0089580E00895A5
S11303908093BB0084E88093BC008091BC008823D8
S11303A0E4F78091B900887F883211F081E00895E4
S11303B080E0089584E98093BC0085E38A95F1F791
S11303C000000895CF93807FC82FC8606111C16079
S11303D08EE40E94A8018C2F84600E94C80185E0ED
S11303E08A95F1F700008C2F0E94C8010E94DA015F
S11303F0CF910895CF93DF93C82FD62F807F0E948B
S1130400E2016D2F8C2F8295807F0E94E2018FE3A1
S11304109FE10197F1F700C00000DF91CF910895AB
S113042060E00E94FA01089561E00E94FA010895D3
S11304302FEF80E792E0215080409040E1F700C028
S1130440000060E080E30E94E2018FE19EE40197F6
S1130450F1F700C0000060E080E30E94E20187E55C
S113046092E00197F1F700C0000060E080E30E9491
S1130470E20160E080E20E94E20188E20E94100250
S11304808CE00E94100286E00E94100281E00E942B
S113049010028FE39FE10197F1F700C00000089577
S11304A0CF93DF93EC0103C021960E94140288814C
S11304B08111FACFDF91CF910895CF93DF93CDB718
S11304C0DEB728970FB6F894DEBF0FBECDBF0E94EB
S11304D09E000E94B1000E94B6000E94BD000E94CE
S11304E0C7000E9418022FEF81EE94E02150804053
S11304F09040E1F700C0000080E80E941002809163
S113050000018133E9F40E941801E82E81E091E0B2
S11305100E9450020E2C000CFF084AE0BE016F5FDF
S11305207F4FC7010E94BA05CE0101960E94500276
S113053088E091E00E945002C7010E9482016BC0D2
S113054080E00E94D000BC0180E090E00E943A0468
S113055020E030E040EA50E40E94180520E030EC4E
S11305604FE754E40E9492039B01AC0160E070E009
S113057080EA90E40E94920320E030E040E85FE3E8
S11305800E94250320E030E44CE156E40E94180563
S113059020E030E44CE156E40E9492030E94D0042F
S11305A02CE23BEB44E859E30E9418052FE03FECB2
S11305B04BE55BE30E9426039B01AC0160E070E025
S11305C080E89FE30E94920323E333E948E853E47D
S11305D00E9425036B017C0181E091E00E9450029E
S11305E0C701B6010E940404DC01CB014AE0BE014C
S11305F06F5F7F4F0E94BA05CE0101960E945002A0
S113060088E091E00E945002C701B6010E940B04E9
S1130610CB010E94820180E00E94D00096958795CC
S11306209695879587BD81E00E94D0009695879521
S11306309695879588BD2FEF83EC99E021508040F3
S11306409040E1F700C0000057CF5058BB27AA27BD
S11306500E943D030C948E040E94800438F00E9492
S1130660870420F039F49F3F19F426F40C947D0498
S11306700EF4E095E7FB0C947704E92F0E949F04A5
S113068058F3BA17620773078407950720F079F4C3
S1130690A6F50C94C1040EF4E0950B2EBA2FA02DF0
S11306A00B01B90190010C01CA01A0011124FF271B
S11306B0591B99F0593F50F4503E68F11A16F04016
S11306C0A22F232F342F4427585FF3CF4695379515
S11306D02795A795F0405395C9F77EF41F16BA0BDA
S11306E0620B730B840BBAF09150A1F0FF0FBB1F88
S11306F0661F771F881FC2F70EC0BA0F621F731FD1
S1130700841F48F4879577956795B795F7959E3F2D
S113071008F0B0CF9395880F08F09927EE0F9795BE
S1130720879508950E94A6030C948E040E94870462
S113073058F00E94800440F029F45F3F29F00C94A3
S1130740770451110C94C2040C947D040E949F04FC
S113075068F39923B1F3552391F3951B550BBB27EC
S1130760AA2762177307840738F09F5F5F4F220F31
S1130770331F441FAA1FA9F335D00E2E3AF0E0E828
S113078032D091505040E695001CCAF72BD0FE2F72
S113079029D0660F771F881FBB1F26173707480706
S11307A0AB07B0E809F0BB0B802DBF01FF279358BE
S11307B05F4F3AF09E3F510578F00C9477040C9407
S11307C0C2045F3FE4F3983ED4F38695779567952A
S11307D0B795F7959F5FC9F7880F911D96958795F3
S11307E097F90895E1E0660F771F881FBB1F621712
S11307F073078407BA0720F0621B730B840BBA0BD0
S1130800EE1F88F7E09508950E940B046894B111D7
S11308100C94C20408950E94A70488F09F5798F08E
S1130820B92F9927B751B0F0E1F0660F771F881FF1
S1130830991F1AF0BA95C9F714C0B13091F00E940B
S1130840C104B1E008950C94C104672F782F882760
S1130850B85F39F0B93FCCF3869577956795B39532
S1130860D9F73EF490958095709561957F4F8F4FA1
S11308709F4F0895E89409C097FB3EF490958095A6
S1130880709561957F4F8F4F9F4F9923A9F0F92F52
S113089096E9BB279395F695879577956795B795D0
S11308A0F111F8CFFAF4BB0F11F460FF1BC06F5FB6
S11308B07F4F8F4F9F4F16C0882311F096E911C0C8
S11308C0772321F09EE8872F762F05C0662371F0E9
S11308D096E8862F70E060E02AF09A95660F771FFD
S11308E0881FDAF7880F9695879597F9089597F9F1
S11308F09F6780E870E060E008959FEF80EC0895C2
S113090000240A94161617061806090608950024EA
S11309100A9412161306140605060895092E039464
S1130920000C11F4882352F0BB0F40F4BF2B11F4D8
S113093060FF04C06F5F7F4F8F4F9F4F089557FD37
S11309409058440F551F59F05F3F71F04795880F39
S113095097FB991F61F09F3F79F0879508951216D0
S113096013061406551FF2CF4695F1DF08C016167C
S113097017061806991FF1CF86957105610508942D
S11309800895E894BB2766277727CB0197F9089544
S113099016F00C9485050C947D0468940C947704EB
S11309A00E94A704A8F39923C1F3AEF3DF93CF9376
S11309B01F930F93FF92C92FDD2788232AF02197D5
S11309C0660F771F881FDAF720E030E040E85FEB1E
S11309D09FE3883920F0803E38F021968F770E947B
S11309E02603E4EBF0E004C00E942603E1EEF0E00D
S11309F00E9493058B01BE01EC01FB2E6F57710918
S1130A007595771F880B990B0E943C0428E132E707
S1130A1041E35FE30E942B05AF2D9801AE01FF90E7
S1130A200F911F91CF91DF910E943D030C948E048E
S1130A300E942B050C948E040E94800438F00E94BE
S1130A40870420F0952311F00C9477040C947D0412
S1130A5011240C94C2040E949F0470F3959FC1F367
S1130A60950F50E0551F629FF001729FBB27F00D58
S1130A70B11D639FAA27F00DB11DAA1F649F6627AD
S1130A80B00DA11D661F829F2227B00DA11D621FFC
S1130A90739FB00DA11D621F839FA00D611D221FB6
S1130AA0749F3327A00D611D231F849F600D211D9A
S1130AB0822F762F6A2F11249F5750409AF0F1F01D
S1130AC088234AF0EE0FFF1FBB1F661F771F881F86
S1130AD091505040A9F79E3F510580F00C94770443
S1130AE00C94C2045F3FE4F3983ED4F38695779563
S1130AF06795B795F795E7959F5FC1F7FE2B880F2C
S1130B00911D9695879597F908959F3F31F09150DF
S1130B1020F4879577956795B795880F911D9695DD
S1130B20879597F90895DF93CF931F930F93FF92BF
S1130B30EF92DF927B018C01689406C0DA2EEF01FC
S1130B400E942B05FE01E894A591259135914591CC
S1130B505591A6F3EF010E943D03FE019701A80100
S1130B60DA9469F7DF90EF90FF900F911F91CF9186
S1130B70DF910895BB274A3031F4992322F4BDE272
S1130B80909581959F4F0C94C605BB27FB01552773
S1130B90AA27880F991FAA1FA41710F0A41B8395D6
S1130BA05051B9F7A05DAA3308F0A95DA19300974D
S1130BB079F7B111B1931192CB010C94DF05DC01EB
S1130BC0FC01672F71917723E1F7329704C07C9180
S1130BD06D9370836291AE17BF07C8F30895F894BC
S1050BE0FFCF41
S10F0BE23054454D503A200043200000E0
S9030000FC
