:100000000C945A000C9464000C9464000C946400EA
:100010000C9464000C9464000C9464000C946400D0
:100020000C9464000C9464000C9464000C946400C0
:100030000C9464000C9464000C9464000C946400B0
:100040000C9464000C9464000C9464000C946400A0
:100050000C9464000C9464000C9464000C94640090
:100060000C9464000C9464000C9464000C94640080
:100070000C9464000C9464000C9464000C94640070
:100080000C9464000C9464000C9464000C94640060
:100090000C9464000C9464000C9464000C94640050
:1000A0000C9464000C9464000C9464000C94640040
:1000B0000C94640011241FBECFEFD8E0DEBFCDBF8B
:1000C0000E94AB000C94C2000C94000084B18760C5
:1000D00084B981E58CBD08958EBD0DB407FEFDCFBA
:1000E00008959BB19F7E9BB99BB19B7F9BB90E945A
:1000F0006C008BB180618BB908959BB19F7E9BB9D9
:100100009BB194609BB90E946C008BB180618BB9EC
:1001100008958BB188608BB98FE39CE90197F1F763
:1001200000C000008BB1877F8BB99FEF20E782E092
:10013000915020408040E1F700C000008BB1886002
:100140008BB99FEF20E782E0915020408040E1F79B
:1001500000C0000008958AB18C618AB98BB18061BA
:100160008BB90E9466000E94890080EB0E9471009A
:1001700080E00E94710080E10E9471008FEF0E9478
:080180007D00FFCFF894FFCFD2
:00000001FF
